{
  "contractName": "SupplyChain",
  "abi": [
    {
      "inputs": [],
      "payable": true,
      "stateMutability": "payable",
      "type": "constructor"
    },
    {
      "anonymous": false,
      "inputs": [
        {
          "indexed": false,
          "internalType": "uint256",
          "name": "upc",
          "type": "uint256"
        }
      ],
      "name": "Aged",
      "type": "event"
    },
    {
      "anonymous": false,
      "inputs": [
        {
          "indexed": false,
          "internalType": "uint256",
          "name": "upc",
          "type": "uint256"
        }
      ],
      "name": "Bottled",
      "type": "event"
    },
    {
      "anonymous": false,
      "inputs": [
        {
          "indexed": true,
          "internalType": "address",
          "name": "account",
          "type": "address"
        }
      ],
      "name": "ConsumerAdded",
      "type": "event"
    },
    {
      "anonymous": false,
      "inputs": [
        {
          "indexed": true,
          "internalType": "address",
          "name": "account",
          "type": "address"
        }
      ],
      "name": "ConsumerRemoved",
      "type": "event"
    },
    {
      "anonymous": false,
      "inputs": [
        {
          "indexed": false,
          "internalType": "uint256",
          "name": "upc",
          "type": "uint256"
        }
      ],
      "name": "Drunk",
      "type": "event"
    },
    {
      "anonymous": false,
      "inputs": [
        {
          "indexed": false,
          "internalType": "uint256",
          "name": "upc",
          "type": "uint256"
        }
      ],
      "name": "ForPurchase",
      "type": "event"
    },
    {
      "anonymous": false,
      "inputs": [
        {
          "indexed": false,
          "internalType": "uint256",
          "name": "upc",
          "type": "uint256"
        }
      ],
      "name": "ForSale",
      "type": "event"
    },
    {
      "anonymous": false,
      "inputs": [
        {
          "indexed": false,
          "internalType": "uint256",
          "name": "upc",
          "type": "uint256"
        }
      ],
      "name": "Made",
      "type": "event"
    },
    {
      "anonymous": false,
      "inputs": [
        {
          "indexed": true,
          "internalType": "address",
          "name": "previousOwner",
          "type": "address"
        },
        {
          "indexed": true,
          "internalType": "address",
          "name": "newOwner",
          "type": "address"
        }
      ],
      "name": "OwnershipTransferred",
      "type": "event"
    },
    {
      "anonymous": false,
      "inputs": [
        {
          "indexed": false,
          "internalType": "uint256",
          "name": "upc",
          "type": "uint256"
        }
      ],
      "name": "Packed",
      "type": "event"
    },
    {
      "anonymous": false,
      "inputs": [
        {
          "indexed": false,
          "internalType": "address",
          "name": "account",
          "type": "address"
        }
      ],
      "name": "Paused",
      "type": "event"
    },
    {
      "anonymous": false,
      "inputs": [
        {
          "indexed": false,
          "internalType": "uint256",
          "name": "upc",
          "type": "uint256"
        }
      ],
      "name": "Purchased",
      "type": "event"
    },
    {
      "anonymous": false,
      "inputs": [
        {
          "indexed": false,
          "internalType": "uint256",
          "name": "upc",
          "type": "uint256"
        }
      ],
      "name": "Received",
      "type": "event"
    },
    {
      "anonymous": false,
      "inputs": [
        {
          "indexed": false,
          "internalType": "uint256",
          "name": "upc",
          "type": "uint256"
        }
      ],
      "name": "Shipped",
      "type": "event"
    },
    {
      "anonymous": false,
      "inputs": [
        {
          "indexed": false,
          "internalType": "uint256",
          "name": "upc",
          "type": "uint256"
        }
      ],
      "name": "Sold",
      "type": "event"
    },
    {
      "anonymous": false,
      "inputs": [
        {
          "indexed": false,
          "internalType": "address",
          "name": "account",
          "type": "address"
        }
      ],
      "name": "Unpaused",
      "type": "event"
    },
    {
      "anonymous": false,
      "inputs": [
        {
          "indexed": true,
          "internalType": "address",
          "name": "account",
          "type": "address"
        }
      ],
      "name": "WineMerchantAdded",
      "type": "event"
    },
    {
      "anonymous": false,
      "inputs": [
        {
          "indexed": true,
          "internalType": "address",
          "name": "account",
          "type": "address"
        }
      ],
      "name": "WineMerchantRemoved",
      "type": "event"
    },
    {
      "anonymous": false,
      "inputs": [
        {
          "indexed": true,
          "internalType": "address",
          "name": "account",
          "type": "address"
        }
      ],
      "name": "WinemakerAdded",
      "type": "event"
    },
    {
      "anonymous": false,
      "inputs": [
        {
          "indexed": true,
          "internalType": "address",
          "name": "account",
          "type": "address"
        }
      ],
      "name": "WinemakerRemoved",
      "type": "event"
    },
    {
      "constant": false,
      "inputs": [
        {
          "internalType": "address",
          "name": "account",
          "type": "address"
        }
      ],
      "name": "addConsumer",
      "outputs": [],
      "payable": false,
      "stateMutability": "nonpayable",
      "type": "function"
    },
    {
      "constant": false,
      "inputs": [
        {
          "internalType": "address",
          "name": "account",
          "type": "address"
        }
      ],
      "name": "addWineMerchant",
      "outputs": [],
      "payable": false,
      "stateMutability": "nonpayable",
      "type": "function"
    },
    {
      "constant": false,
      "inputs": [
        {
          "internalType": "address",
          "name": "account",
          "type": "address"
        }
      ],
      "name": "addWinemaker",
      "outputs": [],
      "payable": false,
      "stateMutability": "nonpayable",
      "type": "function"
    },
    {
      "constant": true,
      "inputs": [
        {
          "internalType": "address",
          "name": "account",
          "type": "address"
        }
      ],
      "name": "isConsumer",
      "outputs": [
        {
          "internalType": "bool",
          "name": "",
          "type": "bool"
        }
      ],
      "payable": false,
      "stateMutability": "view",
      "type": "function"
    },
    {
      "constant": true,
      "inputs": [],
      "name": "isOwner",
      "outputs": [
        {
          "internalType": "bool",
          "name": "",
          "type": "bool"
        }
      ],
      "payable": false,
      "stateMutability": "view",
      "type": "function"
    },
    {
      "constant": true,
      "inputs": [
        {
          "internalType": "address",
          "name": "account",
          "type": "address"
        }
      ],
      "name": "isWineMerchant",
      "outputs": [
        {
          "internalType": "bool",
          "name": "",
          "type": "bool"
        }
      ],
      "payable": false,
      "stateMutability": "view",
      "type": "function"
    },
    {
      "constant": true,
      "inputs": [
        {
          "internalType": "address",
          "name": "account",
          "type": "address"
        }
      ],
      "name": "isWinemaker",
      "outputs": [
        {
          "internalType": "bool",
          "name": "",
          "type": "bool"
        }
      ],
      "payable": false,
      "stateMutability": "view",
      "type": "function"
    },
    {
      "constant": true,
      "inputs": [],
      "name": "owner",
      "outputs": [
        {
          "internalType": "address",
          "name": "",
          "type": "address"
        }
      ],
      "payable": false,
      "stateMutability": "view",
      "type": "function"
    },
    {
      "constant": false,
      "inputs": [],
      "name": "pause",
      "outputs": [],
      "payable": false,
      "stateMutability": "nonpayable",
      "type": "function"
    },
    {
      "constant": true,
      "inputs": [],
      "name": "paused",
      "outputs": [
        {
          "internalType": "bool",
          "name": "",
          "type": "bool"
        }
      ],
      "payable": false,
      "stateMutability": "view",
      "type": "function"
    },
    {
      "constant": false,
      "inputs": [],
      "name": "renounceConsumer",
      "outputs": [],
      "payable": false,
      "stateMutability": "nonpayable",
      "type": "function"
    },
    {
      "constant": false,
      "inputs": [],
      "name": "renounceOwnership",
      "outputs": [],
      "payable": false,
      "stateMutability": "nonpayable",
      "type": "function"
    },
    {
      "constant": false,
      "inputs": [],
      "name": "renounceWineMerchant",
      "outputs": [],
      "payable": false,
      "stateMutability": "nonpayable",
      "type": "function"
    },
    {
      "constant": false,
      "inputs": [],
      "name": "renounceWinemaker",
      "outputs": [],
      "payable": false,
      "stateMutability": "nonpayable",
      "type": "function"
    },
    {
      "constant": false,
      "inputs": [
        {
          "internalType": "address",
          "name": "newOwner",
          "type": "address"
        }
      ],
      "name": "transferOwnership",
      "outputs": [],
      "payable": false,
      "stateMutability": "nonpayable",
      "type": "function"
    },
    {
      "constant": false,
      "inputs": [],
      "name": "unpause",
      "outputs": [],
      "payable": false,
      "stateMutability": "nonpayable",
      "type": "function"
    },
    {
      "constant": false,
      "inputs": [],
      "name": "kill",
      "outputs": [],
      "payable": false,
      "stateMutability": "nonpayable",
      "type": "function"
    },
    {
      "constant": false,
      "inputs": [
        {
          "internalType": "uint256",
          "name": "_upc",
          "type": "uint256"
        },
        {
          "internalType": "string",
          "name": "_originWinemakerName",
          "type": "string"
        },
        {
          "internalType": "string",
          "name": "_originWinemakerInformation",
          "type": "string"
        },
        {
          "internalType": "string",
          "name": "_originWinemakerLatitude",
          "type": "string"
        },
        {
          "internalType": "string",
          "name": "_origineWinemakerLongitude",
          "type": "string"
        },
        {
          "internalType": "string",
          "name": "_productNotes",
          "type": "string"
        }
      ],
      "name": "makeWine",
      "outputs": [],
      "payable": false,
      "stateMutability": "nonpayable",
      "type": "function"
    },
    {
      "constant": false,
      "inputs": [
        {
          "internalType": "uint256",
          "name": "_upc",
          "type": "uint256"
        },
        {
          "internalType": "uint256",
          "name": "monthsAged",
          "type": "uint256"
        }
      ],
      "name": "ageWine",
      "outputs": [],
      "payable": false,
      "stateMutability": "nonpayable",
      "type": "function"
    },
    {
      "constant": false,
      "inputs": [
        {
          "internalType": "uint256",
          "name": "_upc",
          "type": "uint256"
        }
      ],
      "name": "bottleWine",
      "outputs": [],
      "payable": false,
      "stateMutability": "nonpayable",
      "type": "function"
    },
    {
      "constant": false,
      "inputs": [
        {
          "internalType": "uint256",
          "name": "_upc",
          "type": "uint256"
        }
      ],
      "name": "packWine",
      "outputs": [],
      "payable": false,
      "stateMutability": "nonpayable",
      "type": "function"
    },
    {
      "constant": false,
      "inputs": [
        {
          "internalType": "uint256",
          "name": "_upc",
          "type": "uint256"
        },
        {
          "internalType": "uint256",
          "name": "_price",
          "type": "uint256"
        }
      ],
      "name": "sellWine",
      "outputs": [],
      "payable": false,
      "stateMutability": "nonpayable",
      "type": "function"
    },
    {
      "constant": false,
      "inputs": [
        {
          "internalType": "uint256",
          "name": "_upc",
          "type": "uint256"
        }
      ],
      "name": "buyWine",
      "outputs": [],
      "payable": true,
      "stateMutability": "payable",
      "type": "function"
    },
    {
      "constant": false,
      "inputs": [
        {
          "internalType": "uint256",
          "name": "_upc",
          "type": "uint256"
        }
      ],
      "name": "shipWine",
      "outputs": [],
      "payable": false,
      "stateMutability": "nonpayable",
      "type": "function"
    },
    {
      "constant": false,
      "inputs": [
        {
          "internalType": "uint256",
          "name": "_upc",
          "type": "uint256"
        }
      ],
      "name": "receiveWine",
      "outputs": [],
      "payable": false,
      "stateMutability": "nonpayable",
      "type": "function"
    },
    {
      "constant": false,
      "inputs": [
        {
          "internalType": "uint256",
          "name": "_upc",
          "type": "uint256"
        },
        {
          "internalType": "uint256",
          "name": "_price",
          "type": "uint256"
        }
      ],
      "name": "setOnPurchaseWine",
      "outputs": [],
      "payable": false,
      "stateMutability": "nonpayable",
      "type": "function"
    },
    {
      "constant": false,
      "inputs": [
        {
          "internalType": "uint256",
          "name": "_upc",
          "type": "uint256"
        }
      ],
      "name": "purchaseWine",
      "outputs": [],
      "payable": true,
      "stateMutability": "payable",
      "type": "function"
    },
    {
      "constant": false,
      "inputs": [
        {
          "internalType": "uint256",
          "name": "_upc",
          "type": "uint256"
        }
      ],
      "name": "drinkWine",
      "outputs": [],
      "payable": false,
      "stateMutability": "nonpayable",
      "type": "function"
    },
    {
      "constant": true,
      "inputs": [
        {
          "internalType": "uint256",
          "name": "_upc",
          "type": "uint256"
        }
      ],
      "name": "fetchWineBufferOne",
      "outputs": [
        {
          "internalType": "uint256",
          "name": "wineSKU",
          "type": "uint256"
        },
        {
          "internalType": "uint256",
          "name": "wineUPC",
          "type": "uint256"
        },
        {
          "internalType": "address",
          "name": "ownerID",
          "type": "address"
        },
        {
          "internalType": "address payable",
          "name": "originWinemakerID",
          "type": "address"
        },
        {
          "internalType": "string",
          "name": "originWinemakerName",
          "type": "string"
        },
        {
          "internalType": "string",
          "name": "originWinemakerInformation",
          "type": "string"
        },
        {
          "internalType": "string",
          "name": "originWinemakerLatitude",
          "type": "string"
        },
        {
          "internalType": "string",
          "name": "originWinemakerLongitude",
          "type": "string"
        }
      ],
      "payable": false,
      "stateMutability": "view",
      "type": "function"
    },
    {
      "constant": true,
      "inputs": [
        {
          "internalType": "uint256",
          "name": "_upc",
          "type": "uint256"
        }
      ],
      "name": "fetchWineBufferTwo",
      "outputs": [
        {
          "internalType": "uint256",
          "name": "wineSKU",
          "type": "uint256"
        },
        {
          "internalType": "uint256",
          "name": "wineUPC",
          "type": "uint256"
        },
        {
          "internalType": "uint256",
          "name": "productID",
          "type": "uint256"
        },
        {
          "internalType": "uint256",
          "name": "productPrice",
          "type": "uint256"
        },
        {
          "internalType": "uint256",
          "name": "productFinalPrice",
          "type": "uint256"
        },
        {
          "internalType": "uint256",
          "name": "monthsAged",
          "type": "uint256"
        },
        {
          "internalType": "uint256",
          "name": "wineState",
          "type": "uint256"
        },
        {
          "internalType": "string",
          "name": "productNotes",
          "type": "string"
        },
        {
          "internalType": "address payable",
          "name": "wineMerchantID",
          "type": "address"
        },
        {
          "internalType": "address payable",
          "name": "consumerID",
          "type": "address"
        }
      ],
      "payable": false,
      "stateMutability": "view",
      "type": "function"
    }
  ],
  "bytecode": "0x6080604052336000806101000a81548173ffffffffffffffffffffffffffffffffffffffff021916908373ffffffffffffffffffffffffffffffffffffffff1602179055506000809054906101000a900473ffffffffffffffffffffffffffffffffffffffff1673ffffffffffffffffffffffffffffffffffffffff16600073ffffffffffffffffffffffffffffffffffffffff167f8be0079c531659141344cd1fd0a4f28419497f9722a3daafe3b4186f6b6457e060405160405180910390a360008060146101000a81548160ff021916908315150217905550620000eb336200011b60201b60201c565b620000fc336200017c60201b60201c565b6200010d33620001dd60201b60201c565b600160048190555062000387565b620001368160016200023e60201b620037031790919060201c565b8073ffffffffffffffffffffffffffffffffffffffff167f28b26e7a3d20aedbc5f8f2ebf7da671c0491723a2b78f47a097b0e46dee0714260405160405180910390a250565b620001978160026200023e60201b620037031790919060201c565b8073ffffffffffffffffffffffffffffffffffffffff167f6aff2d1ad0280d73c0aeb6b7f6a5efcfde859651f09233c1356f94d0116ea66260405160405180910390a250565b620001f88160036200023e60201b620037031790919060201c565b8073ffffffffffffffffffffffffffffffffffffffff167f6bc466ddf8bd40475fdbc6f9b2de8c103d9c1cebcdf26fba81a42b5f5ce88f1e60405160405180910390a250565b600073ffffffffffffffffffffffffffffffffffffffff168173ffffffffffffffffffffffffffffffffffffffff1614156200027957600080fd5b6200028b8282620002f460201b60201c565b156200029657600080fd5b60018260000160008373ffffffffffffffffffffffffffffffffffffffff1673ffffffffffffffffffffffffffffffffffffffff16815260200190815260200160002060006101000a81548160ff0219169083151502179055505050565b60008073ffffffffffffffffffffffffffffffffffffffff168273ffffffffffffffffffffffffffffffffffffffff1614156200033057600080fd5b8260000160008373ffffffffffffffffffffffffffffffffffffffff1673ffffffffffffffffffffffffffffffffffffffff16815260200190815260200160002060009054906101000a900460ff16905092915050565b613d6a80620003976000396000f3fe6080604052600436106101cc5760003560e01c80638456cb59116100f7578063b38e69e511610095578063e196768e11610064578063e196768e14610a84578063ea993b2814610ad5578063f2fde38b14610d41578063f45e3c5a14610d92576101cc565b8063b38e69e514610684578063bccefb34146106ed578063cbcf234914610a1b578063d1e7404414610a49576101cc565b80638f32d59b116100d15780638f32d59b1461056c578063933e3ea31461059b5780639c190f3e146105d6578063a7a2d35e1461061b576101cc565b80638456cb59146104b95780638b02c226146104d05780638da5cb5b14610515576101cc565b80635a5af9e31161016f57806376410cb51161013e57806376410cb5146103e75780637b97bb34146103fe57806382b489f814610439578063834ff73914610450576101cc565b80635a5af9e31461034f5780635c975abb1461038a57806361e6982d146103b9578063715018a6146103d0576101cc565b80631987884d116101ab5780631987884d146102a157806326820e7e146102e65780633f4ba83a1461032157806341c0e1b514610338576101cc565b806264a0a3146101d157806304fee1eb14610222578063112940f914610250575b600080fd5b3480156101dd57600080fd5b50610220600480360360208110156101f457600080fd5b81019080803573ffffffffffffffffffffffffffffffffffffffff169060200190929190505050610edd565b005b61024e6004803603602081101561023857600080fd5b8101908080359060200190929190505050610f47565b005b34801561025c57600080fd5b5061029f6004803603602081101561027357600080fd5b81019080803573ffffffffffffffffffffffffffffffffffffffff169060200190929190505050611336565b005b3480156102ad57600080fd5b506102e4600480360360408110156102c457600080fd5b8101908080359060200190929190803590602001909291905050506113a0565b005b3480156102f257600080fd5b5061031f6004803603602081101561030957600080fd5b810190808035906020019092919050505061157e565b005b34801561032d57600080fd5b50610336611740565b005b34801561034457600080fd5b5061034d611835565b005b34801561035b57600080fd5b506103886004803603602081101561037257600080fd5b8101908080359060200190929190505050611866565b005b34801561039657600080fd5b5061039f611a28565b604051808215151515815260200191505060405180910390f35b3480156103c557600080fd5b506103ce611a3e565b005b3480156103dc57600080fd5b506103e5611a49565b005b3480156103f357600080fd5b506103fc611b19565b005b34801561040a57600080fd5b506104376004803603602081101561042157600080fd5b8101908080359060200190929190505050611b24565b005b34801561044557600080fd5b5061044e611ce6565b005b34801561045c57600080fd5b5061049f6004803603602081101561047357600080fd5b81019080803573ffffffffffffffffffffffffffffffffffffffff169060200190929190505050611cf1565b604051808215151515815260200191505060405180910390f35b3480156104c557600080fd5b506104ce611d0e565b005b3480156104dc57600080fd5b50610513600480360360408110156104f357600080fd5b810190808035906020019092919080359060200190929190505050611e05565b005b34801561052157600080fd5b5061052a611fe3565b604051808273ffffffffffffffffffffffffffffffffffffffff1673ffffffffffffffffffffffffffffffffffffffff16815260200191505060405180910390f35b34801561057857600080fd5b5061058161200c565b604051808215151515815260200191505060405180910390f35b3480156105a757600080fd5b506105d4600480360360208110156105be57600080fd5b8101908080359060200190929190505050612063565b005b3480156105e257600080fd5b50610619600480360360408110156105f957600080fd5b810190808035906020019092919080359060200190929190505050612225565b005b34801561062757600080fd5b5061066a6004803603602081101561063e57600080fd5b81019080803573ffffffffffffffffffffffffffffffffffffffff169060200190929190505050612403565b604051808215151515815260200191505060405180910390f35b34801561069057600080fd5b506106d3600480360360208110156106a757600080fd5b81019080803573ffffffffffffffffffffffffffffffffffffffff169060200190929190505050612420565b604051808215151515815260200191505060405180910390f35b3480156106f957600080fd5b50610a19600480360360c081101561071057600080fd5b81019080803590602001909291908035906020019064010000000081111561073757600080fd5b82018360208201111561074957600080fd5b8035906020019184600183028401116401000000008311171561076b57600080fd5b91908080601f016020809104026020016040519081016040528093929190818152602001838380828437600081840152601f19601f820116905080830192505050505050509192919290803590602001906401000000008111156107ce57600080fd5b8201836020820111156107e057600080fd5b8035906020019184600183028401116401000000008311171561080257600080fd5b91908080601f016020809104026020016040519081016040528093929190818152602001838380828437600081840152601f19601f8201169050808301925050505050505091929192908035906020019064010000000081111561086557600080fd5b82018360208201111561087757600080fd5b8035906020019184600183028401116401000000008311171561089957600080fd5b91908080601f016020809104026020016040519081016040528093929190818152602001838380828437600081840152601f19601f820116905080830192505050505050509192919290803590602001906401000000008111156108fc57600080fd5b82018360208201111561090e57600080fd5b8035906020019184600183028401116401000000008311171561093057600080fd5b91908080601f016020809104026020016040519081016040528093929190818152602001838380828437600081840152601f19601f8201169050808301925050505050505091929192908035906020019064010000000081111561099357600080fd5b8201836020820111156109a557600080fd5b803590602001918460018302840111640100000000831117156109c757600080fd5b91908080601f016020809104026020016040519081016040528093929190818152602001838380828437600081840152601f19601f82011690508083019250505050505050919291929050505061243d565b005b610a4760048036036020811015610a3157600080fd5b8101908080359060200190929190505050612875565b005b348015610a5557600080fd5b50610a8260048036036020811015610a6c57600080fd5b8101908080359060200190929190505050612c63565b005b348015610a9057600080fd5b50610ad360048036036020811015610aa757600080fd5b81019080803573ffffffffffffffffffffffffffffffffffffffff169060200190929190505050612e25565b005b348015610ae157600080fd5b50610b0e60048036036020811015610af857600080fd5b8101908080359060200190929190505050612e8f565b604051808981526020018881526020018773ffffffffffffffffffffffffffffffffffffffff1673ffffffffffffffffffffffffffffffffffffffff1681526020018673ffffffffffffffffffffffffffffffffffffffff1673ffffffffffffffffffffffffffffffffffffffff16815260200180602001806020018060200180602001858103855289818151815260200191508051906020019080838360005b83811015610bca578082015181840152602081019050610baf565b50505050905090810190601f168015610bf75780820380516001836020036101000a031916815260200191505b50858103845288818151815260200191508051906020019080838360005b83811015610c30578082015181840152602081019050610c15565b50505050905090810190601f168015610c5d5780820380516001836020036101000a031916815260200191505b50858103835287818151815260200191508051906020019080838360005b83811015610c96578082015181840152602081019050610c7b565b50505050905090810190601f168015610cc35780820380516001836020036101000a031916815260200191505b50858103825286818151815260200191508051906020019080838360005b83811015610cfc578082015181840152602081019050610ce1565b50505050905090810190601f168015610d295780820380516001836020036101000a031916815260200191505b509c5050505050505050505050505060405180910390f35b348015610d4d57600080fd5b50610d9060048036036020811015610d6457600080fd5b81019080803573ffffffffffffffffffffffffffffffffffffffff169060200190929190505050613196565b005b348015610d9e57600080fd5b50610dcb60048036036020811015610db557600080fd5b81019080803590602001909291905050506131b3565b604051808b81526020018a8152602001898152602001888152602001878152602001868152602001858152602001806020018473ffffffffffffffffffffffffffffffffffffffff1673ffffffffffffffffffffffffffffffffffffffff1681526020018373ffffffffffffffffffffffffffffffffffffffff1673ffffffffffffffffffffffffffffffffffffffff168152602001828103825285818151815260200191508051906020019080838360005b83811015610e99578082015181840152602081019050610e7e565b50505050905090810190601f168015610ec65780820380516001836020036101000a031916815260200191505b509b50505050505050505050505060405180910390f35b610ee633612403565b610f3b576040517f08c379a000000000000000000000000000000000000000000000000000000000815260040180806020018281038252604c815260200180613bac604c913960600191505060405180910390fd5b610f448161331e565b50565b806008600a811115610f5557fe5b60056000838152602001908152602001600020600d0160009054906101000a900460ff16600a811115610f8457fe5b14610fda576040517f08c379a0000000000000000000000000000000000000000000000000000000008152600401808060200182810382526042815260200180613a3b6042913960600191505060405180910390fd5b60056000838152602001908152602001600020600c01548034101561104a576040517f08c379a0000000000000000000000000000000000000000000000000000000008152600401808060200182810382526029815260200180613d0d6029913960400191505060405180910390fd5b60056000848152602001908152602001600020600c015461106a33611cf1565b6110bf576040517f08c379a000000000000000000000000000000000000000000000000000000000815260040180806020018281038252604f81526020018061393a604f913960600191505060405180910390fd5b600060149054906101000a900460ff1615611125576040517f08c379a000000000000000000000000000000000000000000000000000000000815260040180806020018281038252605d815260200180613c68605d913960600191505060405180910390fd5b600960056000868152602001908152602001600020600d0160006101000a81548160ff0219169083600a81111561115857fe5b02179055503360056000868152602001908152602001600020600e0160006101000a81548173ffffffffffffffffffffffffffffffffffffffff021916908373ffffffffffffffffffffffffffffffffffffffff160217905550336005600086815260200190815260200160002060030160006101000a81548173ffffffffffffffffffffffffffffffffffffffff021916908373ffffffffffffffffffffffffffffffffffffffff16021790555060056000858152602001908152602001600020600d0160019054906101000a900473ffffffffffffffffffffffffffffffffffffffff1673ffffffffffffffffffffffffffffffffffffffff166108fc60056000878152602001908152602001600020600c01549081150290604051600060405180830381858888f19350505050158015611299573d6000803e3d6000fd5b507f653d56639fee6b566a5c804764e9689de38645f0b733df89a36a1b7b42173dd8846040518082815260200191505060405180910390a160006112e6823461337890919063ffffffff16565b90503373ffffffffffffffffffffffffffffffffffffffff166108fc829081150290604051600060405180830381858888f1935050505015801561132e573d6000803e3d6000fd5b505050505050565b61133f33611cf1565b611394576040517f08c379a000000000000000000000000000000000000000000000000000000000815260040180806020018281038252604f81526020018061393a604f913960600191505060405180910390fd5b61139d81613398565b50565b816003600a8111156113ae57fe5b60056000838152602001908152602001600020600d0160009054906101000a900460ff16600a8111156113dd57fe5b14611433576040517f08c379a0000000000000000000000000000000000000000000000000000000008152600401808060200182810382526038815260200180613aef6038913960400191505060405180910390fd5b6005600084815260200190815260200160002060040160009054906101000a900473ffffffffffffffffffffffffffffffffffffffff168073ffffffffffffffffffffffffffffffffffffffff163373ffffffffffffffffffffffffffffffffffffffff16146114ee576040517f08c379a000000000000000000000000000000000000000000000000000000000815260040180806020018281038252603e815260200180613989603e913960400191505060405180910390fd5b600460056000868152602001908152602001600020600d0160006101000a81548160ff0219169083600a81111561152157fe5b02179055508260056000868152602001908152602001600020600b01819055507fa96ae0fc3224ebd79eebfe54bd130cc9cb94416cddd1f2386115e00b72532468846040518082815260200191505060405180910390a150505050565b806005600a81111561158c57fe5b60056000838152602001908152602001600020600d0160009054906101000a900460ff16600a8111156115bb57fe5b14611611576040517f08c379a0000000000000000000000000000000000000000000000000000000008152600401808060200182810382526034815260200180613b276034913960400191505060405180910390fd5b6005600083815260200190815260200160002060040160009054906101000a900473ffffffffffffffffffffffffffffffffffffffff168073ffffffffffffffffffffffffffffffffffffffff163373ffffffffffffffffffffffffffffffffffffffff16146116cc576040517f08c379a000000000000000000000000000000000000000000000000000000000815260040180806020018281038252603e815260200180613989603e913960400191505060405180910390fd5b600660056000858152602001908152602001600020600d0160006101000a81548160ff0219169083600a8111156116ff57fe5b02179055507ff00b9a5725b80c54016f42114f6ed7792d22eecb116011c4afac29c57bef6c95836040518082815260200191505060405180910390a1505050565b61174861200c565b61175157600080fd5b600060149054906101000a900460ff166117b6576040517f08c379a0000000000000000000000000000000000000000000000000000000008152600401808060200182810382526048815260200180613cc56048913960600191505060405180910390fd5b60008060146101000a81548160ff0219169083151502179055507f5db9ee0a495bf2e6ff9c91a7834c1ba4fdd244a5e8aa4e537bd38aeae4b073aa33604051808273ffffffffffffffffffffffffffffffffffffffff1673ffffffffffffffffffffffffffffffffffffffff16815260200191505060405180910390a1565b61183d61200c565b61184657600080fd5b61184e611fe3565b73ffffffffffffffffffffffffffffffffffffffff16ff5b806009600a81111561187457fe5b60056000838152602001908152602001600020600d0160009054906101000a900460ff16600a8111156118a357fe5b146118f9576040517f08c379a000000000000000000000000000000000000000000000000000000000815260040180806020018281038252603e815260200180613a7d603e913960400191505060405180910390fd5b60056000838152602001908152602001600020600e0160009054906101000a900473ffffffffffffffffffffffffffffffffffffffff168073ffffffffffffffffffffffffffffffffffffffff163373ffffffffffffffffffffffffffffffffffffffff16146119b4576040517f08c379a000000000000000000000000000000000000000000000000000000000815260040180806020018281038252603e815260200180613989603e913960400191505060405180910390fd5b600a60056000858152602001908152602001600020600d0160006101000a81548160ff0219169083600a8111156119e757fe5b02179055507fbf38bfcdeeeb6820d8c2698405c403848b5c3fc0bc7dba5988466b55f424f51b836040518082815260200191505060405180910390a1505050565b60008060149054906101000a900460ff16905090565b611a47336133f2565b565b611a5161200c565b611a5a57600080fd5b600073ffffffffffffffffffffffffffffffffffffffff166000809054906101000a900473ffffffffffffffffffffffffffffffffffffffff1673ffffffffffffffffffffffffffffffffffffffff167f8be0079c531659141344cd1fd0a4f28419497f9722a3daafe3b4186f6b6457e060405160405180910390a360008060006101000a81548173ffffffffffffffffffffffffffffffffffffffff021916908373ffffffffffffffffffffffffffffffffffffffff160217905550565b611b223361344c565b565b806002600a811115611b3257fe5b60056000838152602001908152602001600020600d0160009054906101000a900460ff16600a811115611b6157fe5b14611bb7576040517f08c379a000000000000000000000000000000000000000000000000000000000815260040180806020018281038252603a8152602001806139c7603a913960400191505060405180910390fd5b6005600083815260200190815260200160002060040160009054906101000a900473ffffffffffffffffffffffffffffffffffffffff168073ffffffffffffffffffffffffffffffffffffffff163373ffffffffffffffffffffffffffffffffffffffff1614611c72576040517f08c379a000000000000000000000000000000000000000000000000000000000815260040180806020018281038252603e815260200180613989603e913960400191505060405180910390fd5b600360056000858152602001908152602001600020600d0160006101000a81548160ff0219169083600a811115611ca557fe5b02179055507f9b3b66e2380b690bae22c73ef1428fb0c91e72fe14a4b6defa13035214187aff836040518082815260200191505060405180910390a1505050565b611cef336134a6565b565b6000611d0782600161350090919063ffffffff16565b9050919050565b611d1661200c565b611d1f57600080fd5b600060149054906101000a900460ff1615611d85576040517f08c379a000000000000000000000000000000000000000000000000000000000815260040180806020018281038252605d815260200180613c68605d913960600191505060405180910390fd5b6001600060146101000a81548160ff0219169083151502179055507f62e78cea01bee320cd4e420270b5ea74000d11b0c9f74754ebdbfc544b05a25833604051808273ffffffffffffffffffffffffffffffffffffffff1673ffffffffffffffffffffffffffffffffffffffff16815260200191505060405180910390a1565b816007600a811115611e1357fe5b60056000838152602001908152602001600020600d0160009054906101000a900460ff16600a811115611e4257fe5b14611e98576040517f08c379a000000000000000000000000000000000000000000000000000000000815260040180806020018281038252603c815260200180613c2c603c913960400191505060405180910390fd5b60056000848152602001908152602001600020600d0160019054906101000a900473ffffffffffffffffffffffffffffffffffffffff168073ffffffffffffffffffffffffffffffffffffffff163373ffffffffffffffffffffffffffffffffffffffff1614611f53576040517f08c379a000000000000000000000000000000000000000000000000000000000815260040180806020018281038252603e815260200180613989603e913960400191505060405180910390fd5b600860056000868152602001908152602001600020600d0160006101000a81548160ff0219169083600a811115611f8657fe5b02179055508260056000868152602001908152602001600020600c01819055507f70c8907adbc70c123be129c28b7b5fa349be808d31b8acff2969a68651b1a613846040518082815260200191505060405180910390a150505050565b60008060009054906101000a900473ffffffffffffffffffffffffffffffffffffffff16905090565b60008060009054906101000a900473ffffffffffffffffffffffffffffffffffffffff1673ffffffffffffffffffffffffffffffffffffffff163373ffffffffffffffffffffffffffffffffffffffff1614905090565b806001600a81111561207157fe5b60056000838152602001908152602001600020600d0160009054906101000a900460ff16600a8111156120a057fe5b146120f6576040517f08c379a0000000000000000000000000000000000000000000000000000000008152600401808060200182810382526034815260200180613abb6034913960400191505060405180910390fd5b6005600083815260200190815260200160002060040160009054906101000a900473ffffffffffffffffffffffffffffffffffffffff168073ffffffffffffffffffffffffffffffffffffffff163373ffffffffffffffffffffffffffffffffffffffff16146121b1576040517f08c379a000000000000000000000000000000000000000000000000000000000815260040180806020018281038252603e815260200180613989603e913960400191505060405180910390fd5b600260056000858152602001908152602001600020600d0160006101000a81548160ff0219169083600a8111156121e457fe5b02179055507f8aff1823bf9f30e2f7eacb17de47cc2917592a34188a0b47c0c228c82c38fc54836040518082815260200191505060405180910390a1505050565b816000600a81111561223357fe5b60056000838152602001908152602001600020600d0160009054906101000a900460ff16600a81111561226257fe5b146122b8576040517f08c379a0000000000000000000000000000000000000000000000000000000008152600401808060200182810382526034815260200180613bf86034913960400191505060405180910390fd5b6005600084815260200190815260200160002060040160009054906101000a900473ffffffffffffffffffffffffffffffffffffffff168073ffffffffffffffffffffffffffffffffffffffff163373ffffffffffffffffffffffffffffffffffffffff1614612373576040517f08c379a000000000000000000000000000000000000000000000000000000000815260040180806020018281038252603e815260200180613989603e913960400191505060405180910390fd5b826005600086815260200190815260200160002060020181905550600160056000868152602001908152602001600020600d0160006101000a81548160ff0219169083600a8111156123c157fe5b02179055507ffa795f995e12c074777bab440425afc98477f6cfceceba5ca50feae5089e59ce846040518082815260200191505060405180910390a150505050565b600061241982600261350090919063ffffffff16565b9050919050565b600061243682600361350090919063ffffffff16565b9050919050565b61244633612403565b61249b576040517f08c379a000000000000000000000000000000000000000000000000000000000815260040180806020018281038252604c815260200180613bac604c913960600191505060405180910390fd5b600060149054906101000a900460ff1615612501576040517f08c379a000000000000000000000000000000000000000000000000000000000815260040180806020018281038252605d815260200180613c68605d913960600191505060405180910390fd5b6040518061020001604052806004548152602001878152602001600081526020013373ffffffffffffffffffffffffffffffffffffffff1681526020013373ffffffffffffffffffffffffffffffffffffffff1681526020018681526020018581526020018481526020018381526020016125878860045461359290919063ffffffff16565b815260200182815260200160008152602001600081526020016000600a8111156125ad57fe5b8152602001600073ffffffffffffffffffffffffffffffffffffffff168152602001600073ffffffffffffffffffffffffffffffffffffffff168152506005600088815260200190815260200160002060008201518160000155602082015181600101556040820151816002015560608201518160030160006101000a81548173ffffffffffffffffffffffffffffffffffffffff021916908373ffffffffffffffffffffffffffffffffffffffff16021790555060808201518160040160006101000a81548173ffffffffffffffffffffffffffffffffffffffff021916908373ffffffffffffffffffffffffffffffffffffffff16021790555060a08201518160050190805190602001906126c592919061385a565b5060c08201518160060190805190602001906126e292919061385a565b5060e08201518160070190805190602001906126ff92919061385a565b5061010082015181600801908051906020019061271d92919061385a565b50610120820151816009015561014082015181600a01908051906020019061274692919061385a565b5061016082015181600b015561018082015181600c01556101a082015181600d0160006101000a81548160ff0219169083600a81111561278257fe5b02179055506101c082015181600d0160016101000a81548173ffffffffffffffffffffffffffffffffffffffff021916908373ffffffffffffffffffffffffffffffffffffffff1602179055506101e082015181600e0160006101000a81548173ffffffffffffffffffffffffffffffffffffffff021916908373ffffffffffffffffffffffffffffffffffffffff160217905550905050612830600160045461359290919063ffffffff16565b6004819055507feb8109592a383473c76afa62041a6dbabac0ca80d859bbdffb13c5a70c454b90866040518082815260200191505060405180910390a1505050505050565b806004600a81111561288357fe5b60056000838152602001908152602001600020600d0160009054906101000a900460ff16600a8111156128b257fe5b14612908576040517f08c379a000000000000000000000000000000000000000000000000000000000815260040180806020018281038252603a815260200180613900603a913960400191505060405180910390fd5b60056000838152602001908152602001600020600b015480341015612978576040517f08c379a0000000000000000000000000000000000000000000000000000000008152600401808060200182810382526029815260200180613d0d6029913960400191505060405180910390fd5b60056000848152602001908152602001600020600b015461299833612420565b6129ed576040517f08c379a0000000000000000000000000000000000000000000000000000000008152600401808060200182810382526051815260200180613b5b6051913960600191505060405180910390fd5b600060149054906101000a900460ff1615612a53576040517f08c379a000000000000000000000000000000000000000000000000000000000815260040180806020018281038252605d815260200180613c68605d913960600191505060405180910390fd5b6005806000868152602001908152602001600020600d0160006101000a81548160ff0219169083600a811115612a8557fe5b02179055503360056000868152602001908152602001600020600d0160016101000a81548173ffffffffffffffffffffffffffffffffffffffff021916908373ffffffffffffffffffffffffffffffffffffffff160217905550336005600086815260200190815260200160002060030160006101000a81548173ffffffffffffffffffffffffffffffffffffffff021916908373ffffffffffffffffffffffffffffffffffffffff1602179055506005600085815260200190815260200160002060040160009054906101000a900473ffffffffffffffffffffffffffffffffffffffff1673ffffffffffffffffffffffffffffffffffffffff166108fc60056000878152602001908152602001600020600b01549081150290604051600060405180830381858888f19350505050158015612bc6573d6000803e3d6000fd5b507f92f64ca637d023f354075a4be751b169c1a8a9ccb6d33cdd0cb3520543995727846040518082815260200191505060405180910390a16000612c13823461337890919063ffffffff16565b90503373ffffffffffffffffffffffffffffffffffffffff166108fc829081150290604051600060405180830381858888f19350505050158015612c5b573d6000803e3d6000fd5b505050505050565b806006600a811115612c7157fe5b60056000838152602001908152602001600020600d0160009054906101000a900460ff16600a811115612ca057fe5b14612cf6576040517f08c379a000000000000000000000000000000000000000000000000000000000815260040180806020018281038252603a815260200180613a01603a913960400191505060405180910390fd5b60056000838152602001908152602001600020600d0160019054906101000a900473ffffffffffffffffffffffffffffffffffffffff168073ffffffffffffffffffffffffffffffffffffffff163373ffffffffffffffffffffffffffffffffffffffff1614612db1576040517f08c379a000000000000000000000000000000000000000000000000000000000815260040180806020018281038252603e815260200180613989603e913960400191505060405180910390fd5b600760056000858152602001908152602001600020600d0160006101000a81548160ff0219169083600a811115612de457fe5b02179055507fa8142743f8f70a4c26f3691cf4ed59718381fb2f18070ec52be1f1022d855557836040518082815260200191505060405180910390a1505050565b612e2e33612420565b612e83576040517f08c379a0000000000000000000000000000000000000000000000000000000008152600401808060200182810382526051815260200180613b5b6051913960600191505060405180910390fd5b612e8c816135b1565b50565b6000806000806060806060806000600560008b8152602001908152602001600020905080600001549850806001015497508060030160009054906101000a900473ffffffffffffffffffffffffffffffffffffffff1696508060040160009054906101000a900473ffffffffffffffffffffffffffffffffffffffff169550806005018054600181600116156101000203166002900480601f016020809104026020016040519081016040528092919081815260200182805460018160011615610100020316600290048015612fa65780601f10612f7b57610100808354040283529160200191612fa6565b820191906000526020600020905b815481529060010190602001808311612f8957829003601f168201915b50505050509450806006018054600181600116156101000203166002900480601f0160208091040260200160405190810160405280929190818152602001828054600181600116156101000203166002900480156130455780601f1061301a57610100808354040283529160200191613045565b820191906000526020600020905b81548152906001019060200180831161302857829003601f168201915b50505050509350806007018054600181600116156101000203166002900480601f0160208091040260200160405190810160405280929190818152602001828054600181600116156101000203166002900480156130e45780601f106130b9576101008083540402835291602001916130e4565b820191906000526020600020905b8154815290600101906020018083116130c757829003601f168201915b50505050509250806008018054600181600116156101000203166002900480601f0160208091040260200160405190810160405280929190818152602001828054600181600116156101000203166002900480156131835780601f1061315857610100808354040283529160200191613183565b820191906000526020600020905b81548152906001019060200180831161316657829003601f168201915b5050505050915050919395975091939597565b61319e61200c565b6131a757600080fd5b6131b08161360b565b50565b600080600080600080600060606000806000600560008d8152602001908152602001600020905080600001549a50806001015499508060090154985080600a018054600181600116156101000203166002900480601f0160208091040260200160405190810160405280929190818152602001828054600181600116156101000203166002900480156132875780601f1061325c57610100808354040283529160200191613287565b820191906000526020600020905b81548152906001019060200180831161326a57829003601f168201915b5050505050935080600b0154975080600c015496508060020154955080600d0160009054906101000a900460ff16600a8111156132c057fe5b945080600d0160019054906101000a900473ffffffffffffffffffffffffffffffffffffffff16925080600e0160009054906101000a900473ffffffffffffffffffffffffffffffffffffffff169150509193959799509193959799565b61333281600261370390919063ffffffff16565b8073ffffffffffffffffffffffffffffffffffffffff167f6aff2d1ad0280d73c0aeb6b7f6a5efcfde859651f09233c1356f94d0116ea66260405160405180910390a250565b60008282111561338757600080fd5b600082840390508091505092915050565b6133ac81600161370390919063ffffffff16565b8073ffffffffffffffffffffffffffffffffffffffff167f28b26e7a3d20aedbc5f8f2ebf7da671c0491723a2b78f47a097b0e46dee0714260405160405180910390a250565b6134068160016137af90919063ffffffff16565b8073ffffffffffffffffffffffffffffffffffffffff167fe3f5ed5f263f1f01764a96edfc7d025f511ec5f7d180e8816908b78bcf74f09860405160405180910390a250565b6134608160026137af90919063ffffffff16565b8073ffffffffffffffffffffffffffffffffffffffff167fc4aab0426e55302866fc0731265c0e1822c38784d55adc66130827772c58186260405160405180910390a250565b6134ba8160036137af90919063ffffffff16565b8073ffffffffffffffffffffffffffffffffffffffff167fefc5acff2602ca17d8040a490446dd5efbaea2995454305bd2f0af1a10bf693760405160405180910390a250565b60008073ffffffffffffffffffffffffffffffffffffffff168273ffffffffffffffffffffffffffffffffffffffff16141561353b57600080fd5b8260000160008373ffffffffffffffffffffffffffffffffffffffff1673ffffffffffffffffffffffffffffffffffffffff16815260200190815260200160002060009054906101000a900460ff16905092915050565b6000808284019050838110156135a757600080fd5b8091505092915050565b6135c581600361370390919063ffffffff16565b8073ffffffffffffffffffffffffffffffffffffffff167f6bc466ddf8bd40475fdbc6f9b2de8c103d9c1cebcdf26fba81a42b5f5ce88f1e60405160405180910390a250565b600073ffffffffffffffffffffffffffffffffffffffff168173ffffffffffffffffffffffffffffffffffffffff16141561364557600080fd5b8073ffffffffffffffffffffffffffffffffffffffff166000809054906101000a900473ffffffffffffffffffffffffffffffffffffffff1673ffffffffffffffffffffffffffffffffffffffff167f8be0079c531659141344cd1fd0a4f28419497f9722a3daafe3b4186f6b6457e060405160405180910390a3806000806101000a81548173ffffffffffffffffffffffffffffffffffffffff021916908373ffffffffffffffffffffffffffffffffffffffff16021790555050565b600073ffffffffffffffffffffffffffffffffffffffff168173ffffffffffffffffffffffffffffffffffffffff16141561373d57600080fd5b6137478282613500565b1561375157600080fd5b60018260000160008373ffffffffffffffffffffffffffffffffffffffff1673ffffffffffffffffffffffffffffffffffffffff16815260200190815260200160002060006101000a81548160ff0219169083151502179055505050565b600073ffffffffffffffffffffffffffffffffffffffff168173ffffffffffffffffffffffffffffffffffffffff1614156137e957600080fd5b6137f38282613500565b6137fc57600080fd5b60008260000160008373ffffffffffffffffffffffffffffffffffffffff1673ffffffffffffffffffffffffffffffffffffffff16815260200190815260200160002060006101000a81548160ff0219169083151502179055505050565b828054600181600116156101000203166002900490600052602060002090601f016020900481019282601f1061389b57805160ff19168380011785556138c9565b828001600101855582156138c9579182015b828111156138c85782518255916020019190600101906138ad565b5b5090506138d691906138da565b5090565b6138fc91905b808211156138f85760008160009055506001016138e0565b5090565b9056fe537570706c79436861696e3a3a666f7253616c65202d20746869732077696e6520686173206e6f742074686520466f7253616c65207374617465436f6e73756d6572526f6c653a3a6f6e6c79436f6e73756d6572202d20596f75206e65656420746f20686176652074686520636f6e73756d657220726f6c6520746f20706572666f726d2074686973537570706c79436861696e3a3a76657269667943616c6c6572202d205468652063616c6c6572206973206e6f7420746865206f6e6520737570706f736564537570706c79436861696e3a3a626f74746c6564202d20746869732077696e6520686173206e6f742074686520426f74746c6564207374617465537570706c79436861696e3a3a73686970706564202d20746869732077696e6520686173206e6f74207468652053686970706564207374617465537570706c79436861696e3a3a666f725075726368617365202d20746869732077696e6520686173206e6f742074686520466f725075726368617365207374617465537570706c79436861696e3a3a707572636861736564202d20746869732077696e6520686173206e6f742074686520507572636861736564207374617465537570706c79436861696e3a3a61676564202d20746869732077696e6520686173206e6f74207468652041676564207374617465537570706c79436861696e3a3a7061636b6564202d20746869732077696e6520686173206e6f7420746865205061636b6564207374617465537570706c79436861696e3a3a736f6c64202d20746869732077696e6520686173206e6f742074686520536f6c6420737461746557696e654d65726368616e74526f6c653a3a6f6e6c7957696e654d65726368616e74202d206f6e6c7920612077696e65206d65726368616e742063616e20706572666f726d207468697320616374696f6e57696e656d616b6572526f6c653a3a6f6e6c7957696e656d616b6572202d20596f75206e656564207468652077696e656d616b657220726f6c6520746f20646f207468697320616374696f6e537570706c79436861696e3a3a6d616465202d20746869732077696e6520686173206e6f7420746865204d616465207374617465537570706c79436861696e3a3a7265636569766564202d20746869732077696e6520686173206e6f74207468652052656365697665642073746174655061757361626c653a3a7768656e4e6f74506175736564202d2054686520636f6e7472616374206973207061757365642c20696d706f737369626c6520746f20706572666f726d207468697320616374696f6e207269676874206e6f775061757361626c653a3a7768656e506175736564202d20416374696f6e20617661696c61626c65206f6e6c79207768656e2074686520636f6e747261637420697320706175736564537570706c79436861696e3a3a70616964456e6f756768202d204e6f7420656e6f7567682066756e64a265627a7a72315820a832a92a8c243d72c2c7209b296fa574d7d16535a6a571e2647963dc4a07a7b664736f6c63430005100032",
  "source": "pragma solidity ^0.5.0;\n\nimport \"../wineaccesscontrol/ConsumerRole.sol\";\nimport \"../wineaccesscontrol/WinemakerRole.sol\";\nimport \"../wineaccesscontrol/WineMerchantRole.sol\";\nimport \"../winecore/Pausable.sol\";\nimport \"../utils/SafeMath.sol\";\n\n// Define a contract 'Supplychain'\ncontract SupplyChain is Pausable, ConsumerRole, WinemakerRole, WineMerchantRole {\n  using SafeMath for uint256;\n\n  // Define a variable called 'sku' for Stock Keeping Unit (SKU)\n  uint  sku;\n\n  // Define a public mapping 'wines' that maps the UPC to an Wine.\n  mapping (uint => Wine) wines;\n\n  // Define a public mapping 'winesHistory' that maps the UPC to an array of TxHash, \n  // that track its journey through the supply chain -- to be sent from DApp.\n  mapping (uint => string[]) winesHistory;\n  \n  // Define enum 'State' with the following values:\n  enum State \n  { \n    Made,   // 0\n    Aged,   // 1\n    Bottled,  // 2\n    Packed,   // 3\n    ForSale,  // 4\n    Sold,    // 5\n    Shipped,   // 6\n    Received,   // 7\n    ForPurchase, // 8\n    Purchased,  // 9\n    Drunk // 10\n  }\n\n  State constant defaultState = State.Made;\n\n  // Define a struct 'Item' with the following fields:\n  struct Wine {\n    uint    sku;  // Stock Keeping Unit (SKU)\n    uint    upc; // Universal Product Code (UPC), generated by the Farmer, goes on the package, can be verified by the Consumer\n    uint    monthsAged; // Number of months the wine has been aged\n    address ownerID;  // Metamask-Ethereum address of the current owner as the product moves through 8 stages\n    address payable originWinemakerID; // Metamask-Ethereum address of the Farmer\n    string  originWinemakerName; // Winemaker Name\n    string  originWinemakerInformation;  // Winemaker Information\n    string  originWinemakerLatitude; // Winemaker Latitude\n    string  originWinemakerLongitude;  // Winemaker Longitude\n    uint    productID;  // Product ID potentially a combination of upc + sku\n    string  productNotes; // Product Notes\n    uint    productPrice; // Product Price\n    uint    productFinalPrice; // Final price pof the product when sales by the wine merchant\n    State   wineState;  // Product State as represented in the enum above\n    address payable wineMerchantID;  // Metamask-Ethereum address of the Wine Merchant\n    address payable consumerID; // Metamask-Ethereum address of the Consumer\n  }\n\n  // Define 8 events with the same 11 state values and accept 'upc' as input argument\n  event Made(uint upc);\n  event Aged(uint upc);\n  event Bottled(uint upc);\n  event Packed(uint upc);\n  event ForSale(uint upc);\n  event Sold(uint upc);\n  event Shipped(uint upc);\n  event Received(uint upc);\n  event ForPurchase(uint upc);\n  event Purchased(uint upc);\n  event Drunk(uint upc);\n\n  // Define a modifer that verifies the Caller\n  modifier verifyCaller (address payable _address) {\n    require(msg.sender == _address, \"SupplyChain::verifyCaller - The caller is not the one supposed\"); \n    _;\n  }\n\n  // Define a modifier that checks if the paid amount is sufficient to cover the price\n  modifier paidEnough(uint _price) { \n    require(msg.value >= _price, \"SupplyChain::paidEnough - Not enough fund\"); \n    _;\n  }\n  \n  // Define a modifier that checks the price and refunds the remaining balance\n  modifier checkValue(uint price) {\n    _;\n    uint amountToReturn = msg.value.sub(price);\n    msg.sender.transfer(amountToReturn);\n  }\n\n  // Define a modifier that checks if an wine.state of a upc is Made\n  modifier made(uint _upc) {\n    require(wines[_upc].wineState == State.Made, \"SupplyChain::made - this wine has not the Made state\");\n    _;\n  }\n\n  // Define a modifier that checks if an wine.state of a upc is Aged\n  modifier aged(uint _upc) {\n    require(wines[_upc].wineState == State.Aged, \"SupplyChain::aged - this wine has not the Aged state\");\n    _;\n  }\n  \n  // Define a modifier that checks if an wine.state of a upc is Bottled\n  modifier bottled(uint _upc) {\n    require(wines[_upc].wineState == State.Bottled, \"SupplyChain::bottled - this wine has not the Bottled state\");\n    _;\n  }\n\n    // Define a modifier that checks if an wine.state of a upc is Packed\n  modifier packed(uint _upc) {\n    require(wines[_upc].wineState == State.Packed, \"SupplyChain::packed - this wine has not the Packed state\");\n    _;\n  }\n\n  // Define a modifier that checks if an wine.state of a upc is ForSale\n  modifier forSale(uint _upc) {\n    require(wines[_upc].wineState == State.ForSale, \"SupplyChain::forSale - this wine has not the ForSale state\");\n    _;\n  }\n\n  // Define a modifier that checks if an wine.state of a upc is Sold\n  modifier sold(uint _upc) {\n    require(wines[_upc].wineState == State.Sold, \"SupplyChain::sold - this wine has not the Sold state\");\n    _;\n  }\n  \n  // Define a modifier that checks if an wine.state of a upc is Shipped\n  modifier shipped(uint _upc) {\n    require(wines[_upc].wineState == State.Shipped, \"SupplyChain::shipped - this wine has not the Shipped state\");\n    _;\n  }\n\n  // Define a modifier that checks if an wine.state of a upc is Received\n  modifier received(uint _upc) {\n    require(wines[_upc].wineState == State.Received, \"SupplyChain::received - this wine has not the Received state\");\n    _;\n  }\n\n  // Define a modifier that checks if an wine.state of a upc is ForPurchase\n  modifier forPurchase(uint _upc) {\n    require(wines[_upc].wineState == State.ForPurchase, \"SupplyChain::forPurchase - this wine has not the ForPurchase state\");\n    _;\n  }\n\n  // Define a modifier that checks if an wine.state of a upc is Purchased\n  modifier purchased(uint _upc) {\n    require(wines[_upc].wineState == State.Purchased, \"SupplyChain::purchased - this wine has not the Purchased state\");\n    _;\n  }\n\n  // Define a modifier that checks if an wine.state of a upc is Drunk\n  modifier drunk(uint _upc) {\n    require(wines[_upc].wineState == State.Drunk, \"SupplyChain::drunk - this wine has not the Drunk state\");\n    _;\n  }\n\n  constructor() public payable {\n    sku = 1;\n  }\n\n  // Define a function 'kill' if required\n  function kill() public onlyOwner {\n    selfdestruct(address(uint160(owner())));\n  }\n\n  // Define a function 'makeItem' that allows a farmer to mark an item 'Made'\n  function makeWine(uint _upc, string memory _originWinemakerName, string memory _originWinemakerInformation, string  memory _originWinemakerLatitude, string  memory _origineWinemakerLongitude, string  memory _productNotes) public onlyWinemaker whenNotPaused {\n    // Add the new item as part of Harvest\n    wines[_upc] = Wine({\n      sku: sku,\n      upc: _upc,\n      monthsAged: 0,\n      ownerID: msg.sender,\n      originWinemakerID: msg.sender,\n      originWinemakerName: _originWinemakerName,\n      originWinemakerInformation: _originWinemakerInformation,\n      originWinemakerLatitude: _originWinemakerLatitude,\n      originWinemakerLongitude: _origineWinemakerLongitude,\n      productID: sku.add(_upc),\n      productNotes: _productNotes,\n      productPrice: 0,\n      productFinalPrice: 0,\n      wineState: State.Made,\n      wineMerchantID: address(0),\n      consumerID: address(0)\n    });\n    \n    // Increment sku\n    sku = sku.add(1);\n\n    // Emit the Made event\n    emit Made(_upc);\n    \n  }\n\n\n  // Define a function 'ageWine' that allows a winemaker to mark a wine 'Aged'\n  function ageWine(uint _upc, uint monthsAged) public made(_upc) verifyCaller(wines[_upc].originWinemakerID) {\n    // Update the appropriate fields\n    wines[_upc].monthsAged = monthsAged;\n    wines[_upc].wineState = State.Aged;\n    \n    // Emit the Aged event\n    emit Aged(_upc);\n    \n  }\n  \n\n  // Define a function 'bottleWine' that allows a winemaker to mark a wine 'Bottled'\n  function bottleWine(uint _upc) public aged(_upc) verifyCaller(wines[_upc].originWinemakerID) {\n    // Update the appropriate fields\n    wines[_upc].wineState = State.Bottled;\n    \n    // Emit the Bottle event\n    emit Bottled(_upc);\n    \n  }\n\n  // Define a function 'packWine' that allows a farmer to mark an item 'Packed'\n  function packWine(uint _upc) public bottled(_upc) verifyCaller(wines[_upc].originWinemakerID) {\n    // Update the appropriate fields\n    wines[_upc].wineState = State.Packed;\n    \n    // Emit the appropriate event\n    emit Packed(_upc);\n  }\n\n\n  // Define a function 'sellWine' that allows a farmer to mark an item 'ForSale'\n  function sellWine(uint _upc, uint _price) public packed(_upc) verifyCaller(wines[_upc].originWinemakerID) {\n    // Update the appropriate fields\n    wines[_upc].wineState = State.ForSale;\n    wines[_upc].productPrice = _price;\n    \n    // Emit the appropriate event\n    emit ForSale(_upc);\n    \n  }\n\n  // Define a function 'buyWine' that allows the WineMerchant to mark an item 'Sold'\n  function buyWine(uint _upc) public payable forSale(_upc) paidEnough(wines[_upc].productPrice) checkValue(wines[_upc].productPrice) onlyWineMerchant whenNotPaused {\n    // Update the appropriate fields - ownerID, wineMerchantID, wineState\n    wines[_upc].wineState = State.Sold;\n    wines[_upc].wineMerchantID = msg.sender;\n    wines[_upc].ownerID = msg.sender;\n    \n    // Transfer money to winemaker\n    wines[_upc].originWinemakerID.transfer(wines[_upc].productPrice)    ;\n    // emit the appropriate event\n    emit Sold(_upc);\n    \n  }\n\n  // Define a function 'shipWine' that allows the distributor to mark an item 'Shipped'\n  // Use the above modifers to check if the item is sold\n  function shipWine(uint _upc) public sold(_upc) verifyCaller(wines[_upc].originWinemakerID) {\n    // Update the appropriate fields\n    wines[_upc].wineState = State.Shipped;\n    \n    // Emit the appropriate event\n    emit Shipped(_upc);\n  }\n\n  // Define a function 'receiveWine' that allows the retailer to mark an item 'Received'\n  // Use the above modifiers to check if the item is shipped\n  function receiveWine(uint _upc) public shipped(_upc) verifyCaller(wines[_upc].wineMerchantID) {\n    wines[_upc].wineState = State.Received;\n    \n    // Emit the appropriate event\n    emit Received(_upc);\n  }\n\n\n  // Define a function 'setOnPurchaseWine' that allows the retailer to mark an item 'ForPurchase'\n  // Use the above modifiers to check if the item is shipped\n  function setOnPurchaseWine(uint _upc, uint _price) public received(_upc) verifyCaller(wines[_upc].wineMerchantID) {\n    wines[_upc].wineState = State.ForPurchase;\n    wines[_upc].productFinalPrice = _price;\n    \n    // Emit the appropriate event\n    emit ForPurchase(_upc);\n  }\n\n  // Define a function 'purchaseWine' that allows the consumer to mark an item 'Purchased'\n  function purchaseWine(uint _upc) public payable forPurchase(_upc) paidEnough(wines[_upc].productFinalPrice) checkValue(wines[_upc].productFinalPrice) onlyConsumer whenNotPaused {\n    // Update the appropriate fields - ownerID, consumerID, wineState\n    wines[_upc].wineState = State.Purchased;\n    wines[_upc].consumerID = msg.sender;\n    wines[_upc].ownerID = msg.sender;\n    wines[_upc].wineMerchantID.transfer(wines[_upc].productFinalPrice);\n    \n    // Emit the appropriate event\n    emit Purchased(_upc);\n  }\n\n  // Define a function 'purchaseWine' that allows the consumer to mark an item 'Purchased'\n  function drinkWine(uint _upc) public purchased(_upc) verifyCaller(wines[_upc].consumerID) {\n    // Update the appropriate fields - ownerID, consumerID, wineState\n    wines[_upc].wineState = State.Drunk;\n\n    // Emit the appropriate event\n    emit Drunk(_upc);\n  }\n\n  // Define a function 'fetchWineBufferOne' that fetches the data\n  function fetchWineBufferOne(uint _upc) public view returns \n  (\n    uint    wineSKU,\n    uint    wineUPC,\n    address ownerID,\n    address payable originWinemakerID,\n    string  memory originWinemakerName,\n    string  memory originWinemakerInformation,\n    string  memory originWinemakerLatitude,\n    string  memory originWinemakerLongitude\n  ) \n  {\n    Wine storage wine = wines[_upc];\n    wineSKU = wine.sku;\n    wineUPC = wine.upc;\n    ownerID = wine.ownerID;\n    originWinemakerID = wine.originWinemakerID;\n    originWinemakerName = wine.originWinemakerName;\n    originWinemakerInformation = wine.originWinemakerInformation;\n    originWinemakerLatitude = wine.originWinemakerLatitude;\n    originWinemakerLongitude = wine.originWinemakerLongitude;\n  }\n\n  // Define a function 'fetchWineBufferTwo' that fetches the data\n  function fetchWineBufferTwo(uint _upc) public view returns \n  (\n    uint    wineSKU,\n    uint    wineUPC,\n    uint    productID,\n    uint    productPrice,\n    uint    productFinalPrice,\n    uint    monthsAged,\n    uint    wineState,\n    string  memory productNotes,\n    address payable wineMerchantID,\n    address payable consumerID\n  ) \n  {\n    Wine storage wine = wines[_upc];\n    wineSKU = wine.sku;\n    wineUPC = wine.upc;\n    productID = wine.productID;\n    productNotes = wine.productNotes;\n    productPrice = wine.productPrice;\n    productFinalPrice = wine.productFinalPrice;\n    monthsAged = wine.monthsAged;\n    wineState = uint(wine.wineState);\n    wineMerchantID = wine.wineMerchantID;\n    consumerID = wine.consumerID;\n  }\n}\n",
  "sourcePath": "C:\\Users\\rajes\\Desktop\\sssupply-chain-solidity-master\\contracts\\winebase\\SupplyChain.sol",
  "compiler": {
    "name": "solc",
    "version": "0.5.16+commit.9c3226ce.Emscripten.clang"
  },
  "schemaVersion": "3.4.3",
  "updatedAt": "2021-12-02T04:40:35.937Z",
  "networkType": "ethereum",
  "devdoc": {
    "methods": {
      "isOwner()": {
        "return": "true if `msg.sender` is the owner of the contract."
      },
      "owner()": {
        "return": "the address of the owner."
      },
      "pause()": {
        "details": "Called by a pauser to pause, triggers stopped state."
      },
      "paused()": {
        "return": "True if the contract is paused, false otherwise."
      },
      "renounceOwnership()": {
        "details": "Allows the current owner to relinquish control of the contract. It will not be possible to call the functions with the `onlyOwner` modifier anymore."
      },
      "transferOwnership(address)": {
        "details": "Allows the current owner to transfer control of the contract to a newOwner.",
        "params": {
          "newOwner": "The address to transfer ownership to."
        }
      },
      "unpause()": {
        "details": "Called by a pauser to unpause, returns to normal state."
      }
    }
  },
  "userdoc": {
    "methods": {
      "renounceOwnership()": {
        "notice": "Renouncing ownership will leave the contract without an owner, thereby removing any functionality that is only available to the owner."
      }
    }
  }
}