{
  "contractName": "WinemakerRole",
  "abi": [
    {
      "inputs": [],
      "payable": false,
      "stateMutability": "nonpayable",
      "type": "constructor"
    },
    {
      "anonymous": false,
      "inputs": [
        {
          "indexed": true,
          "internalType": "address",
          "name": "account",
          "type": "address"
        }
      ],
      "name": "WinemakerAdded",
      "type": "event"
    },
    {
      "anonymous": false,
      "inputs": [
        {
          "indexed": true,
          "internalType": "address",
          "name": "account",
          "type": "address"
        }
      ],
      "name": "WinemakerRemoved",
      "type": "event"
    },
    {
      "constant": true,
      "inputs": [
        {
          "internalType": "address",
          "name": "account",
          "type": "address"
        }
      ],
      "name": "isWinemaker",
      "outputs": [
        {
          "internalType": "bool",
          "name": "",
          "type": "bool"
        }
      ],
      "payable": false,
      "stateMutability": "view",
      "type": "function"
    },
    {
      "constant": false,
      "inputs": [
        {
          "internalType": "address",
          "name": "account",
          "type": "address"
        }
      ],
      "name": "addWinemaker",
      "outputs": [],
      "payable": false,
      "stateMutability": "nonpayable",
      "type": "function"
    },
    {
      "constant": false,
      "inputs": [],
      "name": "renounceWinemaker",
      "outputs": [],
      "payable": false,
      "stateMutability": "nonpayable",
      "type": "function"
    }
  ],
  "bytecode": "0x608060405234801561001057600080fd5b506100203361002560201b60201c565b6101c7565b61003d81600061008360201b6102c71790919060201c565b8073ffffffffffffffffffffffffffffffffffffffff167f6aff2d1ad0280d73c0aeb6b7f6a5efcfde859651f09233c1356f94d0116ea66260405160405180910390a250565b600073ffffffffffffffffffffffffffffffffffffffff168173ffffffffffffffffffffffffffffffffffffffff1614156100bd57600080fd5b6100cd828261013560201b60201c565b156100d757600080fd5b60018260000160008373ffffffffffffffffffffffffffffffffffffffff1673ffffffffffffffffffffffffffffffffffffffff16815260200190815260200160002060006101000a81548160ff0219169083151502179055505050565b60008073ffffffffffffffffffffffffffffffffffffffff168273ffffffffffffffffffffffffffffffffffffffff16141561017057600080fd5b8260000160008373ffffffffffffffffffffffffffffffffffffffff1673ffffffffffffffffffffffffffffffffffffffff16815260200190815260200160002060009054906101000a900460ff16905092915050565b61049f806101d66000396000f3fe608060405234801561001057600080fd5b50600436106100405760003560e01c806264a0a31461004557806376410cb514610089578063a7a2d35e14610093575b600080fd5b6100876004803603602081101561005b57600080fd5b81019080803573ffffffffffffffffffffffffffffffffffffffff1690602001909291905050506100ef565b005b610091610159565b005b6100d5600480360360208110156100a957600080fd5b81019080803573ffffffffffffffffffffffffffffffffffffffff169060200190929190505050610164565b604051808215151515815260200191505060405180910390f35b6100f833610164565b61014d576040517f08c379a000000000000000000000000000000000000000000000000000000000815260040180806020018281038252604c81526020018061041f604c913960600191505060405180910390fd5b61015681610181565b50565b610162336101db565b565b600061017a82600061023590919063ffffffff16565b9050919050565b6101958160006102c790919063ffffffff16565b8073ffffffffffffffffffffffffffffffffffffffff167f6aff2d1ad0280d73c0aeb6b7f6a5efcfde859651f09233c1356f94d0116ea66260405160405180910390a250565b6101ef81600061037390919063ffffffff16565b8073ffffffffffffffffffffffffffffffffffffffff167fc4aab0426e55302866fc0731265c0e1822c38784d55adc66130827772c58186260405160405180910390a250565b60008073ffffffffffffffffffffffffffffffffffffffff168273ffffffffffffffffffffffffffffffffffffffff16141561027057600080fd5b8260000160008373ffffffffffffffffffffffffffffffffffffffff1673ffffffffffffffffffffffffffffffffffffffff16815260200190815260200160002060009054906101000a900460ff16905092915050565b600073ffffffffffffffffffffffffffffffffffffffff168173ffffffffffffffffffffffffffffffffffffffff16141561030157600080fd5b61030b8282610235565b1561031557600080fd5b60018260000160008373ffffffffffffffffffffffffffffffffffffffff1673ffffffffffffffffffffffffffffffffffffffff16815260200190815260200160002060006101000a81548160ff0219169083151502179055505050565b600073ffffffffffffffffffffffffffffffffffffffff168173ffffffffffffffffffffffffffffffffffffffff1614156103ad57600080fd5b6103b78282610235565b6103c057600080fd5b60008260000160008373ffffffffffffffffffffffffffffffffffffffff1673ffffffffffffffffffffffffffffffffffffffff16815260200190815260200160002060006101000a81548160ff021916908315150217905550505056fe57696e656d616b6572526f6c653a3a6f6e6c7957696e656d616b6572202d20596f75206e656564207468652077696e656d616b657220726f6c6520746f20646f207468697320616374696f6ea265627a7a7231582053753f2b9cb09bde7233f40ed984b0b787fb93862f0f1b28c2efbb74f1269e9564736f6c63430005100032",
  "source": "pragma solidity ^0.5.0;\n\n// Import the library 'Roles'\nimport \"./Roles.sol\";\n\n// Define a contract 'FarmerRole' to manage this role - add, remove, check\ncontract WinemakerRole {\n  using Roles for Roles.Role;\n\n  // Define 2 events, one for Adding, and other for Removing\n  event WinemakerAdded(address indexed account);\n  event WinemakerRemoved(address indexed account);\n\n  // Define a struct 'winemakers' by inheriting from 'Roles' library, struct Role\n  Roles.Role private winemakers;\n\n  // In the constructor make the address that deploys this contract the 1st winemaker\n  constructor() public {\n    _addWinemaker(msg.sender);\n  }\n\n  // Define a modifier that checks to see if msg.sender has the appropriate role\n  modifier onlyWinemaker() {\n    require(isWinemaker(msg.sender), \"WinemakerRole::onlyWinemaker - You need the winemaker role to do this action\");\n    _;\n  }\n\n  // Define a function 'isWinemaker' to check this role\n  function isWinemaker(address account) public view returns (bool) {\n    return winemakers.has(account);\n  }\n\n  // Define a function 'addWinemaker' that adds this role\n  function addWinemaker(address account) public onlyWinemaker {\n    _addWinemaker(account);\n  }\n\n  // Define a function 'renounceWinemaker' to renounce this role\n  function renounceWinemaker() public {\n    _removeWinemaker(msg.sender);\n  }\n\n  // Define an internal function '_addWinemaker' to add this role, called by 'addWinemaker'\n  function _addWinemaker(address account) internal {\n    winemakers.add(account);\n    emit WinemakerAdded(account);\n  }\n\n  // Define an internal function '_removeWinemaker' to remove this role, called by 'renounceWinemaker'\n  function _removeWinemaker(address account) internal {\n    winemakers.remove(account);\n    emit WinemakerRemoved(account);\n  }\n}",
  "sourcePath": "C:\\Users\\rajes\\Desktop\\sssupply-chain-solidity-master\\contracts\\wineaccesscontrol\\WinemakerRole.sol",
  "compiler": {
    "name": "solc",
    "version": "0.5.16+commit.9c3226ce.Emscripten.clang"
  },
  "schemaVersion": "3.4.3",
  "updatedAt": "2021-12-02T04:36:01.590Z",
  "devdoc": {
    "methods": {}
  },
  "userdoc": {
    "methods": {}
  }
}